:100000000C94EC000C940D010C940D010C940D015A
:100010000C940D010C940D010C940D010C940D0128
:100020000C940D010C940D010C940D010C940D0118
:100030000C940D010C940D010C940D010C940D0108
:100040000C940D010C940D010C940D010C940D01F8
:100050000C940D010C940D010C940D010C940D01E8
:100060000C940D010C940D010C940D010C940D01D8
:100070000C940D010C940D010C940D010C940D01C8
:100080000C940D010C940D010C940D010C940D01B8
:100090000C940D010C940D010C940D010C940D01A8
:1000A0000C940D010C940D010C940D010C940D0198
:1000B0000C940D010C940D010C940D010C940D0188
:1000C0000C940D010C940D010C940D010C940D0178
:1000D0000C940D010C940D010C940D010C940D0168
:1000E0000C940D010C940D010C940D010C940D0158
:1000F0000C940D010C940D010C940D010C940D0148
:100100000C940D010C940D010C940D010C940D0137
:100110000C940D010C940D010C940D010C940D0127
:100120000C940D010C940D010C940D010C940D0117
:100130000C940D010C940D010C940D010C940D0107
:100140000C940D010C940D010C940D010C940D01F7
:100150000C940D010C940D010C940D010C940D01E7
:100160000C940D010C940D010C940D010C940D01D7
:100170000C940D010C940D010C940D010C940D01C7
:100180000C940D010C940D010C940D010C940D01B7
:100190000C940D010C940D010C940D010C940D01A7
:1001A0000C940D010C940D010C940D010C940D0197
:1001B0000C940D010C940D010C940D010C940D0187
:1001C0000C940D010C940D010C940F010C948603FA
:1001D0000C941C010C942B0111241FBECFEFCDBF3A
:1001E000DFE3DEBF00E00CBF10E2A0E0B0E2EAEA2D
:1001F000FBE000E00BBF02C007900D92A03BB107EF
:10020000D9F721E2A0EBB0E201C01D92A431B20700
:10021000E1F70E94A0050C94D3050C94000080E047
:100220000895E4E0F1E2DC012D91CD012193B1E2EA
:10023000E431FB07C1F708950E94110180E00895A1
:10024000E4EEF0E2DC012D91CD012193B0E2EC3E31
:10025000FB07C1F708951F93CF93DF930E942001FE
:10026000C0E0D6E011E01D836CEE70E284E091E224
:100270000E94B4016CEE70E284EE90E20E949C0158
:100280001E8344EE50E268E070E082E70E94F703CC
:1002900080E0DF91CF911F91089508950895EF9226
:1002A000FF920F931F93CF93DF93EC018B0140E2FA
:1002B00050E20E941E03E12CF12C88E0E80EF11CB4
:1002C000A701405E5F4DB801CE010E94340388E271
:1002D000E816F10491F7CE010E940002CE010696C5
:1002E0000E943E02CE0104960E947C02CE0102963C
:1002F0000E947C02CE010E943E02CE010E941F029B
:10030000E12CF12CA701405B5F4DB801CE010E94AA
:100310005C0388E0E80EF11C88E2E816F10491F72E
:1003200048E750E2B801CE01DF91CF911F910F91C4
:10033000FF90EF900C941E030F931F93CF93DF93C6
:100340008C01EB010E947803BE01605F7F4FC80102
:100350000E944F01BE01685F7F4FC801DF91CF91BE
:100360001F910F910C9478030F931F93CF93DF93FA
:10037000FC01DB019C01CB01AF01485F5F4F8F01A6
:10038000E80169918E01EC016993CE01E8016F816A
:10039000EC016F870417150799F78D01085F1F4F50
:1003A000BF01695F7F4FA9012F5F3F4FEA0189813C
:1003B000D0E88D9FC0011124EA0198819695892784
:1003C000E80189938E016217730769F78081D0E88D
:1003D0008D9FC00111249781969589271F968C9334
:1003E0001F978781881F8827881F18969C911897C8
:1003F000892718968C93DF91CF911F910F910895C3
:10040000CF93DF93DC019C01285F3F4FEC91CE2F0F
:10041000C295CF70D0E0C057DF4D888140E1849F06
:10042000C0011124EF70F0E0E057FF4D9081892763
:100430008D932A173B0751F7DF91CF910895CF9302
:10044000DF93DC019C01285F3F4FEC91CE2FC295DA
:10045000CF70D0E0C058DF4D888140E1849FC0015B
:100460001124EF70F0E0E058FF4D908189278D93C3
:100470002A173B0751F7DF91CF910895FC01818145
:10048000382F32953F709081292F22952F70582F49
:100490005B70492F4E704527532F57704527522FB9
:1004A0005D70452760E1469FA0011124682F6D70A3
:1004B000592F57705627632F6B705627622F6E7017
:1004C000562745274183582F5E70492F4B7045278B
:1004D000532F5D704527522F5770452760E1469F87
:1004E000A001112487709D7098273E7093272B7070
:1004F0009227942790830895FC018181382F3295AB
:100500003F709081292F22952F70582F5D70492FB1
:1005100047704527532F5B704527522F5E70452744
:1005200060E1469FA0011124682F6E70592F5B7007
:100530005627632F6D705627622F67705627452701
:100540004183582F5770492F4D704527532F5E70A8
:100550004527522F5B70452760E1469FA00111247B
:100560008B709E709827377093272D709227942751
:1005700090830895FC0187819581382F307F292F42
:100580002F70232727832381907F322F3F7093275B
:1005900095839181207F392F3F7023272383907F7C
:1005A0008F7089278183808124813281422F407F0F
:1005B000932F9F70942790839681492F407F2F70AF
:1005C00024272283282F207F9F7092279483307FB7
:1005D0008F70832786830895FC0181819381382F52
:1005E000307F292F2F70232721832581907F322F61
:1005F0003F70932793839781207F392F3F70232764
:100600002583907F8F70892787838681228134811B
:10061000422F407F932F9F70942796839081492F7C
:10062000407F2F7024272483282F207F9F709227BC
:100630009283307F8F70832780830895CF93DF93D9
:10064000DB01FC019A01285F3F4FEA019991AE015D
:100650008081892780839D9189278193C217D30741
:10066000A1F7DF91CF910895EF92FF920F931F931F
:10067000CF93DF93EC018B017A010E940002CE013F
:1006800006960E943E02CE0104960E947C02CE0194
:1006900002960E947C02CE010E943E02CE010E9480
:1006A000BA02A701B801CE01DF91CF911F910F913E
:1006B000FF90EF900C941E03CF93DF93EC010E9408
:1006C0001E03CE010E94EC02CE0106960E943E025D
:1006D000CE0104960E947C02CE0102960E947C020A
:1006E000CE010E943E02CE01DF91CF910C941F02F9
:1006F000FC019C01285F3F4FDB018D91BD01908182
:1007000089278193E217F307B9F7089581E00895E7
:10071000DB01FA019F01241B350B28173907D4F59B
:100720002C9111963C91119760ED630F6A3010F493
:1007300060830FC06FEB630F663010F4375308C04F
:100740006FE9630F663018F081E090E00895375547
:10075000308330ED320F3A3018F42295207F14C0E8
:100760003FEB320F363020F430E02753310907C019
:100770003FE9320F363040F730E02755310964E069
:10078000220F331F6A95E1F73081232B20833196A6
:100790001296C0CF80E090E008952091B020309173
:1007A000B1202A303105CCF460347105B0F495E005
:1007B000929FF001939FF00D1124EE54FF4D808322
:1007C00061837283438354832F5F3F4F2093B02014
:1007D0003093B12080E090E0089581E090E00895AA
:1007E00046E853E060E070E086E70C94CD03CF92DA
:1007F000DF92EF92FF920F931F93CF93DF938B01C2
:10080000EA010E94F6047E01C7018C1B9D0B801734
:100810009107B4F46701D701ED917D01E295EF7086
:10082000F0E0E056FF4D80810E94F604D601EC9185
:10083000EF70F0E0E056FF4D80810E94F604E4CFB7
:100840008AE0DF91CF911F910F91FF90EF90DF90A1
:10085000CF900C94F604AF92BF92CF92DF92EF92BA
:10086000FF920F931F93CF93DF93CDB7DEB7C15C99
:10087000D109CDBFDEBF0E94EF044091B02050915E
:10088000B12022EB30E200E010E00417150754F429
:100890002B5F3F4FF90135979081891739F00F5F32
:1008A0001F4FF3CF0417150709F454C09E012F5FA3
:1008B0003F4F7901690125E0209FC001219F900DE4
:1008C0001124DC01AD54BF4D5D01D5018D919C918A
:1008D000880F991F96012E193F092817390750F4E0
:1008E0000E94EF048A30B1F18D30A1F1F6018193BD
:1008F0006F01EBCF0E94EF048A3011F08D3051F57B
:1009000025E0209FC001219F900D11248C010E54E1
:100910001F4DAE014F575F4FB701F80181819281A2
:100920000E948803892BB1F4D8011396ED91FC91B4
:100930001497CE018F579F4F1995CF53DF4F888360
:10094000C15CD040AE014F535F4F61E070E08AE779
:100950000E94F703CF53DF4FCDBFDEBFDF91CF91B2
:100960001F910F91FF90EF90DF90CF90BF90AF90CD
:100970000895E0E4F6E088E0818384E08283E0EAA1
:10098000F8E083E085838BE0868317828481806131
:1009900084838481886084830895CF93DF931F923A
:1009A0001F92CDB7DEB769837A8320E030E04981BA
:1009B0005A812417350769F04091A10847FF06C006
:1009C0002091A008FC01208381E004C02F5F3F4FED
:1009D000EECF80E00F900F90DF91CF91089580913E
:1009E000A10887FFFCCF8091A00808959091A108ED
:1009F00095FFFCCF8093A0080895FC01608371836C
:100A0000428314861386168615860895FC01628338
:100A10000895FC01958526859F5F937081E0921370
:100A200001C080E008951F93CF93DF93EC01162F50
:100A30000E940905882379F09D85FE01E90FF11DCB
:100A400017839F5F93709D87E881F98193819C7FD5
:100A50002A81922B9383DF91CF911F910895FC01FE
:100A60002385948581E0291301C080E00895FC016D
:100A70008485DF01A80FB11D13968C9194859F5F2B
:100A8000937094870895FC0183858F5F837024851C
:100A9000A081B1819C91821749F02385DF01A20FCB
:100AA000B11D13969C93838781E0089580E008959B
:100AB000CF93DF93FC0196858585A081B181981342
:100AC00007C013968C9113978C7F13968C930AC052
:100AD0008685EF01C80FD11D8F818C9386858F5F2E
:100AE00083708687DF91CF910895FC01848170FF28
:100AF00002C0816001C08E7F848360830895FC0101
:100B0000848180FF04C0808190E09160089580819D
:100B100090E008951092520010925500809150007C
:100B20008860809350008091510083FFFCCF88ED56
:100B300084BF83E08093400088E080935000089554
:100B40000E948A050E94B90481E08093010688E62C
:100B50000E94F60485E60E94F6048CE60E94F604E4
:100B60008CE60E94F6048FE60E94F6048AE00E945A
:100B7000F6040E94F0034CE151E060E170E08BE686
:100B80000E94CD034BE251E068E070E080E70E94F4
:100B9000CD034FE051E060E070E088E70E94CD03B4
:0A0BA0000E942B04FDCFF894FFCF54
:100BAA0029EBB59FB1EA67FCFFEEDDCCBBAA9988B9
:100BBA007766554433221100EFCDAB89674523018F
:100BCA000000000000000000447370032E8A19130D
:100BDA00D0319F29223809A4896C4EEC98FA2E0844
:100BEA007713D038E62128456C0CE934CF6654BE19
:100BFA00B15C95FD784FF87EAA43ACF15108848523
:100C0A00543C32252FD382C80D61E3E09511A564C7
:100C1A0099230CCA99A3B5D3DD507CC9B729ACC0B6
:100C2A000B0703020F0D08090A060400050E0C0142
:100C3A000B0F03020A0C0901060708000E050D0432
:100C4A0030313233343536373839414243444546F8
:00000001FF
